:020000040000FA
:060000000A128A110C280F
:10000800FE00030EF0000A08F1000A168A115C2EA1
:100018000A128A110F288313B630FD001330FE0030
:100028002F30FF00A03084000A168A1120230A12FC
:100038008A116D30FD001230FE007630FF00653009
:1000480084000A168A1120230A128A110A128A15B4
:1000580001200A128A11F9000A128A1502200A12CE
:100068008A11FA00B6308400C9300A168A116E2245
:100078000A128A112030840045300A168A116E222D
:100088000A128A11FB0183010A128A114B280A16E7
:100098008A1195260A128A110A168A11F9230A1258
:1000A8008A11013083120313E300E2016508DD00C1
:1000B8006608DE006708DF00E0010A30C50000308E
:1000C800C60000300A168A1194230A128A1173088E
:1000D80083120313C8007208C7000A168A11CF26B4
:1000E8000A128A11831203134508E1006430610281
:1000F800031C7F28802882286330E10001300A121F
:100108008A159C210A128A1183120313E4003E30D7
:100118006406031D90289128A7285D30F200D93085
:10012800F3008730F4000A128A1503200A128A1194
:100138005D3083120313C9006108CA000A128A11CC
:100148003A250A128A113D30831203136406031DEF
:10015800AE28AF28D628053060020318B428B52881
:10016800A32A0130E0075D30F2006008DA005A0780
:10017800A03E840083130008F300840A0008840367
:10018800F4000A128A1503200A128A115D308312BC
:100198000313C9006108CA000A128A113A250A1213
:1001A8008A11A32A3B306406031DDB28DC28F728C4
:1001B80060080319E028E128A32A0130E0025D3035
:1001C800F2006008DA005A07A03E84008313000892
:1001D800F300840A00088403F4000A128A15032035
:1001E8000A128A11CA282F3064060319FC28FD2830
:1001F800032937306406031D02290329A32A630350
:10020800031D07290829A32A0330E3001330E2005D
:100218000A168A11D3220A128A118430F60086300F
:10022800F7008030F8000A168A11C2240A128A11CF
:10023800F2010F300A168A11B9250A128A1183129F
:1002480003131215A32A5D30CA006108CB000A12F5
:100258008A157B200A128A11BF2A013083120313E0
:10026800E3000A168A11D3220A128A11F2010C300D
:100278000A168A11B9250A128A1183120313121158
:10028800BF2A023083120313E3000130B3000A16B9
:100298008A11D3220A128A1141296208CA00640805
:1002A8000A128A157C260A128A11A03A03194529CE
:1002B800013A03193129BF2A123062060319652948
:1002C80066296B29330803196A296B2977291215BE
:1002D8000530B4000A168A11D3220A128A11831231
:1002E8000313B301E2016408CA0062080A128A15FE
:1002F80067220A128A1183120313DC0000300A12E3
:100308008A159C210A128A113F3A03198C298D29D2
:100318009129053083120313B400023083120313AA
:100328006306031D98299929DF29B7306406031944
:100338009E299F29A529AF306406031DA429A52954
:10034800DF2912110130B3000530B4000A168A11F2
:10035800D3220A128A1101300A128A159C210A1224
:100368008A113F3A031DB929BA29AF29CC2904308B
:10037800E3000130B200BF2A0530E300BF2A06308F
:10038800E300BF2A0730E300BF2A0830E300BF2A92
:10039800831203135C08003A0319BB29013A0319B5
:1003A800C029033A0319C329013A0319C629073A90
:1003B8000319C929BF2A3408031DE329E429BF2AE0
:1003C8000130E3000A168A11D3220A128A11013079
:1003D80083120313B300412964080A168A1160279F
:1003E8000A128A11B730831203136406031DFD290C
:1003F800FE29172A01300A128A159C210A128A112D
:100408003F3A031D082A092AFE29023083120313E2
:10041800E3000130B3000130B2000A168A11D3227A
:100428000A128A11BF2AAF306406031D1C2A1D2A2E
:10043800BF2A01300A128A159C210A128A113F3AF2
:10044800031D272A282A1D2A013083120313E300DB
:100458000130B200112A6208C50064080A168A1120
:1004680021250A128A11B730831203136406031D6B
:100478003E2A3F2A542A01300A128A159C210A1260
:100488008A113F3A031D492A4A2A3F2A0A168A1125
:10049800D3220A128A11023083120313E300BF2AFF
:1004A800AF306406031D592A5A2ABF2A01300A129E
:1004B8008A159C210A128A113F3A031D642A652A6B
:1004C8005A2A0A168A11D3220A128A110130831273
:1004D8000313E300BF2A15306206031D742A752A28
:1004E8007A2A0A128A152C250A128A110A168A11E2
:1004F800D3220A128A11023083120313E300BF2A9F
:10050800121564080A128A11C6220A128A11003AC0
:1005180003198F2A902ABF2A023083120313E3009B
:100528000130B300112A64080A128A1500240A123D
:100538008A11013A031DA12AA22ABF2A902A8312EE
:1005480003136308013A03192729033A0319602999
:10055800013A03195129073A0319F029013A0319F5
:100568002F2A033A03196F2A013A0319842A0F3AEA
:100578000319972ABF2A83120313E20161280A127A
:100588008A110C2883120313D40069080319CD2A91
:10059800CE2A0F2B0A168A11D3220A128A11B830D2
:1005A800F6008630F7008030F8000A168A11C22457
:1005B8000A128A110A168A1113270A128A110A3096
:1005C800F2008312031335080A168A1109230A1246
:1005D8008A11831203133607F03EA9000A30F2008D
:1005E80037080A168A1109230A128A11831203137B
:1005F8003807F03EA8000A30F20039080A168A11B6
:1006080009230A128A11831203133A07F03EA7003E
:10061800AA01B001E90102302A06031D142B152B8B
:10062800262B30080319192B1A2B262BD130F6004C
:100638008730F700C030F8000A168A11C2240A125F
:100648008A115A2BC030C9000A30F2000030F3007A
:100658002908CA00CB014A08F4004B08F5000A1221
:100668008A1537210A128A117208303E0A168A1131
:10067800F6220A128A11C13083120313C9000A3004
:10068800F2000030F3002908CA00CB014A08F40040
:100698004B08F5000A128A1524200A128A117208DA
:1006A800303E0A168A11F6220A128A11C2308312C3
:1006B8000313C9003A300A168A11F6220A128A115F
:1006C800831203132A03031D6A2B6B2B7C2B300820
:1006D80003196F2B702B7C2BD130F6008730F70075
:1006E800C330F8000A168A11C2240A128A11B02BE4
:1006F800C330C9000A30F2000030F3002808CA00ED
:10070800CB014A08F4004B08F5000A128A15372174
:100718000A128A117208303E0A168A11F6220A1243
:100728008A11C43083120313C9000A30F200003062
:10073800F3002808CA00CB014A08F4004B08F5006A
:100748000A128A1524200A128A117208303E0A16E3
:100758008A11F6220A128A11C53083120313C900BE
:100768003A300A168A11F6220A128A1183120313E2
:100778002A08031DC02BC12BD22B30080319C52B07
:10078800C62BD22BD130F6008730F700C630F800E0
:100798000A168A11C2240A128A11062CC630C90008
:1007A8000A30F2000030F3002708CA00CB014A08DB
:1007B800F4004B08F5000A128A1537210A128A112B
:1007C8007208303E0A168A11F6220A128A11C730B8
:1007D80083120313C9000A30F2000030F30027081F
:1007E800CA00CB014A08F4004B08F5000A128A1522
:1007F80024200A128A117208303E0A168A11F6223B
:100808000A128A113730831203135406031D0D2C64
:100818000E2C3B2C2A08031D122C132C1D2C0130E6
:10082800A7073C302706031D1A2C1B2C3B2CA701BD
:100838003B2C2A03031D212C222C2C2C0130A80729
:100848003C302806031D292C2A2C3B2CA8013B2CC4
:1008580002302A06031D312C322C3B2C0130A9070B
:1008680018302906031D392C3A2C3B2CA9012F30AE
:100878005406031D402C412C4A2C0130AA07033092
:100888002A06031D482C492C4A2CAA01B7305406C5
:10089800031D4F2C502C382D0A30F2000030F30085
:1008A8002908CA00CB014A08F4004B08F5000A12CF
:1008B8008A1524200A128A11720883120313CC00A5
:1008C8007308CD000A30F2000030F3002908CE008A
:1008D800CF014E08F4004F08F5000A128A15372197
:1008E8000A128A11720883120313D000033003100E
:1008F800D00DFF3E031D7B2C0310500D4C04D1007E
:100908000A30F2000030F3002808CA00CB014A0878
:10091800F4004B08F5000A128A1524200A128A11DD
:10092800720883120313CC007308CD000A30F2005A
:100938000030F3002808CE00CF014E08F4004F081D
:10094800F5000A128A1537210A128A1172088312D1
:100958000313D00003300310D00DFF3E031DAF2C4E
:100968000310500D4C04D2000A30F2000030F3009E
:100978002708CA00CB014A08F4004B08F5000A1200
:100988008A1524200A128A11720883120313CC00D4
:100998007308CD000A30F2000030F3002708CE00BB
:1009A800CF014E08F4004F08F5000A128A153721C6
:1009B8000A128A11720883120313D000033003103D
:1009C800D00DFF3E031DE32C0310500D4C04D30043
:1009D8005108F30002300A168A1176230A128A1186
:1009E800831203135208F30001300A168A11762382
:1009F8000A128A11831203135308F30000300A16EF
:100A08008A1176230A128A110A168A11D3220A1227
:100A18008A111F30F6008730F7008030F8000A1678
:100A28008A11C2240A128A116030F6008730F70052
:100A3800C030F8000A168A11C2240A128A1133300B
:100A480083120313CC00BB30CB00DF30CA00CA0BC3
:100A58002B2DCB0B2B2DCC0B2B2D013083120313FD
:100A6800E90012110130392D003008000A30F20077
:100A78008312031344080A168A1109230A128A11D9
:100A880083120313CD000A168A1113270A128A113A
:100A9800B630F2003530F3000630F4000030F500CF
:100AA8000A168A11EF250A128A11BC30F200831245
:100AB80003134908F3000230F4000030F5000A1669
:100AC8008A11EF250A128A110A30F2000030F30069
:100AD800831203134A08CB00CC014B08F4004C08DE
:100AE800F5000A128A1537210A128A117208303E57
:100AF80083160313BE000A30F2000030F30083129D
:100B080003134A08CB00CC014B08F4004C08F5004D
:100B18000A128A1524200A128A117208303E831696
:100B28000313BF00C001B630F700831203134D084A
:100B38000A168A115D230A128A11013083120313DF
:100B4800C4070A304406031DAA2DAB2DAC2DC401E1
:100B58000A3031020318B12DB22DB42D0130B1077E
:100B680008000130F4020030031CF503F502740A92
:100B7800031DC22D750A031DC22DC32DD02DF201F0
:100B8800F301FF2D0130F2070130F3070130F402C1
:100B98000030031CF503F502720884008313000873
:100BA8000319D72DD82DF12D7308840000080319D7
:100BB800DE2DDF2DF12D740875040319E42DE52DC4
:100BC800F12D730884000008F600720884000008FC
:100BD80076060319F02DF12DC62D73088400000840
:100BE800F600720884000008F70076087702F20021
:100BF800F301031CF30308000D340A342D342D349B
:100C08002D342D342D342D342D342D342D342D34D4
:100C18002D342D3420344C344F344734203444346C
:100C280041345434413420342D342D342D342D3472
:100C38002D342D342D342D342D342D342D342D34A4
:100C48000D340A3400342D342D342D342D342D3404
:100C58002D342D342D342D342D342D342D342D3484
:100C68002D342D342D342D342D342D342D342D3474
:100C78002D342D342D342D342D342D342D342D3464
:100C88002D342D342D342D340D340A3400340D34E4
:100C98000A3449346E34643465347834203420346A
:100CA800543469346D34653420342034203420348D
:100CB8002034203420344534763465346E3474342A
:100CC80020342034533470346534653464340D343E
:100CD8000A3400340D340A344E346F3420346C3402
:100CE8006F34673473342034613476346134693452
:100CF8006C34613462346C3465340D340A34003435
:100D080045346E347434653472342034703461344C
:100D18007334733477346F34723464342034203449
:100D280020340034543449344D344534203420348C
:100D380020342034203420344534563420342034B0
:100D480053345034003459346F3475347234203489
:100D5800613472346534203462346C346F346334F3
:100D68006B34653464340034543449344D34453478
:100D780020342834483448343A344D344D343A34E5
:100D8800533453342934003444346F3477346E3454
:100D98006C346F346134643469346E3467342E349F
:100DA8002E342E340034543449344D3445342034F0
:100DB8002034203420342034453420342034533433
:100DC80050340034773472346F346E3467342034DE
:100DD800703461347334733477346F3472346434F8
:100DE800003445346E3474346534723420346E34CF
:100DF80065347734203470347734643400344434C0
:100E08006F3477346E346C346F3461346434203426
:100E180044346F346E34653400346C346F34673462
:100E280069346E3420347334753463346334653410
:100E3800733473340034543469346D346534203475
:100E48006334683461346E34673465346434003430
:100E5800523465342D3465346E34743465347234E8
:100E68002034503477346434003464346F34773445
:100E78006E346C346F346134643420346C346F34C1
:100E88006734003450347734643420346D34693432
:100E980073346D34613474346334683400344134E9
:100EA8007434743465346D347034743420346C3470
:100EB800653466347434003473347534633463349D
:100EC800653473347334663475346C346C34793403
:100ED80000345034773464342034753470346434D6
:100EE8006134743465346434003463346834613490
:100EF8006E346734653420347034773464340034A5
:100F080053347534633463346534733473346634FA
:100F180075346C34003443346C3465346134723461
:100F280020344C346F346734003463346C346534A3
:100F38006134723420346C346F3467340034733461
:100F4800653474342034743469346D346534003451
:100F5800763469346534773420346C346F346734CC
:100F680000347734613469347434203466346F342F
:100F7800723400344E344F3420346C346F34673458
:100F8800733400344E346F3420346C346F34673427
:100F98007334003420342034203420342034003496
:100FA8007334653463347334003443342034003488
:100FB800473431340034473432340034473433341E
:100FC800003447343434003447344E340034473422
:100FD80052340034FF1BF82F83137F18831700083F
:100FE800840A0319FF0A08007F087F398A00040869
:080FF800840A0319FF0A8200BC
:101002003F3401347208F8007408F6007308F500E2
:10101200F30A0319F40A760883120313FF00750812
:1010220084000A128A11EE270A128A15F70078083C
:10103200F80A84007708831380000008031D222821
:10104200232805280800F701F51F28282928302819
:10105200F409F509F40A0319F50A0130F700F31F40
:10106200332834283928F209F309F20A0319F30A5A
:101072007208730403193E283F286C280130F600D9
:101082004B2801300310F20DF30DFF3E031D4328E0
:101092000130F607F31F4E284F28422873087502C5
:1010A200031D552872087402031C582859285F280A
:1010B2007208F4027308031CF503F50201300310F1
:1010C200F30CF20CFF3E031D60280130F602031DF3
:1010D2006B286C284F287708031970287128762806
:1010E200F409F509F40A0319F50A7508F3007408FE
:1010F200F20008009630F6008630F7008030F800E3
:101102000A168A11C2240A128A150A168A1113278C
:101112000A128A150A168A11AF270A128A15831231
:1011220003134A08F6000030F700CA30F8000A1626
:101132008A11C2240A128A15CE3083120313C900FF
:101142000A30F2000030F3004B08CC00CD014C080D
:10115200F4004D08F5000A128A1537210A128A1581
:101162007208303E0A168A11F6220A128A15CF3008
:1011720083120313C9000A30F2000030F3004B0857
:10118200CC00CD014C08F4004D08F5000A128A1576
:1011920024200A128A157208303E0A168A11F62293
:1011A2000A128A150800C330F700CD30F600F60B9C
:1011B200D828F70BD828F20133300A168A11B9253C
:1011C2000A128A151B30F7009E30F600F60BE7284C
:1011D200F70BE7280000F20133300A168A11B9250D
:1011E2000A128A15A630F600F60BF5280000F20165
:1011F20033300A168A11B9250A128A1500290129E3
:101202000000F20102300A168A11B9250A128A1563
:10121200A630F600F60B0B290000F20128300A1660
:101222008A11B9250A128A15A630F600F60B17297B
:101232000000F20101300A168A11B9250A128A1534
:101242000430F7003D30F600F60B2529F70B25296F
:101252002A29F2010C300A168A11B9250A128A15B6
:10126200A630F600F60B33290000080083120313A0
:10127200C601F31F3D293E294529F209F309F20A65
:101282000319F30A0130C600F51F482949295029DC
:10129200F409F509F40A0319F50A0130C606C70173
:1012A200C801720873040319572958298D2901307E
:1012B200C500642901300310F20DF30DFF3E031D3A
:1012C2005C290130C507F31F672968295B290130B2
:1012D2000310C70DC80DFF3E031D6929730875026F
:1012E200031D752972087402031C78297929802943
:1012F2007208F4027308031CF503F5024714013067
:101302000310F30CF20CFF3E031D81290130C502CC
:10131200031D8C298D2968294608031991299229D0
:101322009729C709C809C70A0319C80A4808F30058
:101332004708F2000800F4007408031DA129A2293D
:10134200A7298312031306083F39002A83120313C5
:101352000608F5003F30F5053F3075060319B2293E
:10136200B329BD297A080319B729B829BD29FA0179
:101372007508F900FB01FF293F3075060319C229E0
:10138200C329E829790875060319C829C929CC296E
:101392007508F900FB011E307B020318D129D229FE
:1013A200DD298230F300DD30F200F20BD629F30B97
:1013B200D629DB290130FB071E307B06031DE229FB
:1013C200E329FF290130FB0779088038002A3F30E2
:1013D2007506031DED29EE29FF297A08031DF2295E
:1013E200F329FF290130FA001E307B020318FA2983
:1013F200FB29FD297908002A3F30F9003F30080017
:101402000030F6000030F5000030F4000030F30048
:101412008312031348084704460445040319122A99
:10142200132A5E2A0130F700212A0130F20003104C
:10143200C50DC60DC70DC80DF20B182A0130F707EE
:10144200C81F242A252A162A0130F2000310F30DA0
:10145200F40DF50DF60DF20B272A48084C02031D78
:101462003C2A47084B02031D3C2A46084A02031D38
:101472003C2A45084902031C3F2A402A4F2A4508B4
:10148200C9024608031C460FCA024708031C470F3D
:10149200CB024808031C480FCC027314013003101E
:1014A200C80CC70CC60CC50CFF3E031D502A0130E8
:1014B200F702031D5D2A5E2A252A7608C8007508F0
:1014C200C7007408C6007308C5000800831203131E
:1014D200CD0012304D06031D6F2A702A7A2A0A1691
:1014E2008A11D3220A128A1583120313AC01013026
:1014F200EC0037304A06031D7F2A802A9A2A0430DC
:101502002C020318852A862A9A2A0130AC070A1669
:101512008A11D3220A128A150230831203136C0233
:101522000318942A952A972A0130EC070530B40053
:10153200B72A2F304A06031D9F2AA02AB72A2C0851
:101542000319A42AA52AB72A0130AC020A168A1165
:10155200D3220A128A150230831203136C02031C6F
:10156200B32AB42A972A0130EC02972A6C03031D8E
:10157200BB2ABC2AF52A8030C9002A300A168A11F1
:10158200F6220A128A15831203132C08CB004B078A
:10159200AC3E840083130008F600840A000884032A
:1015A200F7008230F8000A168A11C2240A128A153C
:1015B2000430831203132C020318E02AE12A2C2B95
:1015C2002C08CB004B07AE3E840083130008F600C4
:1015D200840A00088403F700C230F8000A168A1150
:1015E200C2240A128A152C2BC030C9002A300A16CE
:1015F2008A11F6220A128A15831203132C08031980
:10160200032B042B172B2C08CB004B07AA3E84007C
:1016120083130008F600840A00088403F70082306E
:10162200F8000A168A11C2240A128A1583120313B9
:101632002C08CB004B07AC3E840083130008F60055
:10164200840A00088403F700C230F8000A168A11DF
:10165200C2240A128A15831203132C08080083126B
:101662000313CD008030C90023300A168A11F622F6
:101672000A128A15D730F6008630F7008230F80059
:101682000A168A11C2240A128A15C0308312031361
:10169200C9000A30F2000030F3004D08CB00CC0143
:1016A2004B08F4004C08F5000A128A1524200A128D
:1016B2008A157208303E0A168A11F6220A128A1513
:1016C200C23083120313C9004A088400831300083E
:1016D2000A168A11F6220A128A15C33083120313DC
:1016E200C9004A0A8400831300080A168A11F622E6
:1016F2000A128A15C43083120313C9003A300A163B
:101702008A11F6220A128A15C53083120313C90000
:101712004A08023E8400831300080A168A11F62240
:101722000A128A15C63083120313C9004A08033EFF
:101732008400831300080A168A11F6220A128A15F7
:10174200C73083120313C9003A300A168A11F622EF
:101752000A128A15C83083120313C9004A08043ECC
:101762008400831300080A168A11F6220A128A15C7
:10177200C93083120313C9004A08053E840083134B
:1017820000080A168A11F6220A128A15CB30831231
:101792000313C9004A08063E8400831300080A1690
:1017A2008A11F6220A128A15CC3083120313C90059
:1017B2004A08073E8400831300080A168A11F6229B
:1017C2000A128A15CE3083120313C9004A08083E52
:1017D2008400831300080A168A11F6220A128A1557
:1017E200CF3083120313C9004A08093E84008313D1
:1017F20000080A168A11F6220A128A1508008312B4
:101802000313CD0068080319072C082C2B2C0A1689
:101812008A11D3220A128A15F530F6008630F700B3
:101822008030F8000A168A11C2240A128A15F201BF
:10183200C5300A168A11B9250A128A15F2010F302B
:101842000A168A11B9250A128A1583120313A601F0
:10185200A501E80137304D060319302C312C372C05
:101862002F304D06031D362C372C2B2D2508031D3A
:101872003B2C3C2C8A2C37304D06031D412C422C2C
:10188200492C26083C3E8400313083138000552CBD
:101892002F304D06031D4E2C4F2C552C26083C3E56
:1018A20084003030831380002608C53EC9002A30E8
:1018B2000A168A11F6220A128A15013083120313BC
:1018C200A60704302606031D672C682C2B2DA601C3
:1018D2000130A5000A168A11D3220A128A152C3069
:1018E200F6008730F7008030F8000A168A11C22409
:1018F2000A128A15F201C5300A168A11B9250A128E
:101902008A15F2010F300A168A11B9250A128A15B0
:101912002B2D2503031D8E2C8F2C2B2D37304D069E
:10192200031D942C952C9C2C2608C13E840031303A
:1019320083138000A82C2F304D06031DA12CA22C4E
:10194200A82C2608C13E840030308313800026086C
:10195200C53EC9002A300A168A11F6220A128A15D1
:10196200013083120313A60704302606031DBA2C86
:10197200BB2C2B2D3C30F200C130F3000430F400BC
:101982000030F5000A128A11B5250A128A1572086A
:101992007304031DCD2CCE2CFF2C3C30F7000A160D
:1019A2008A111E240A128A153C30F6000A168A1180
:1019B20045230A128A150A168A11D3220A128A1597
:1019C200F2010C300A168A11B9250A128A156D30F5
:1019D200F6008730F7008030F8000A168A11C22418
:1019E2000A128A156030F6008730F700C030F8001E
:1019F2000A168A11C2240A128A15162D0A168A118B
:101A0200D3220A128A15F2010C300A168A11B9255C
:101A12000A128A154630F6008730F7008030F80047
:101A22000A168A11C2240A128A153330831203134A
:101A3200CC00BB30CB00DF30CA00CA0B1E2DCB0B53
:101A42001E2DCC0B1E2D013083120313E800A601BC
:101A5200A501013008000A168A11D3220A128A153A
:101A6200C830F6008630F7008030F8000A168A1176
:101A7200C2240A128A15831203133108031D422D50
:101A8200432D662D6E30C9008630CA000A168A11AF
:101A920044240A128A15BE30F6008730F700C0309F
:101AA200F8000A168A11C2240A128A1533308312E8
:101AB2000313CD00BB30CC00DF30CB00CB0B5F2D4E
:101AC200CC0B5F2DCD0B5F2D7B2E0030C9008630F5
:101AD200CA000A168A1144240A128A154B3083124C
:101AE2000313C9008630CA000A168A1144240A1256
:101AF2008A1583120313D901552E4E30F800590866
:101B02000A168A1125260A128A1523300A168A1104
:101B1200B0220A128A150A30F2000030F300831252
:101B220003135908CB00CC014B08F4004C08F50014
:101B32000A128A1537210A128A157208303E0A16CD
:101B42008A11B0220A128A150A30F2000030F3001C
:101B5200831203135908CB00CC014B08F4004C0844
:101B6200F5000A128A1524200A128A157208303EDC
:101B72000A168A11B0220A128A15CF308312031371
:101B8200C9008730CA000A168A1144240A128A152B
:101B9200831203134E080A168A11B0220A128A15FA
:101BA200831203134F080A168A11B0220A128A15E9
:101BB2003A300A168A11B0220A128A1583120313C6
:101BC20050080A168A11B0220A128A1583120313C8
:101BD20051080A168A11B0220A128A153A300A16D8
:101BE2008A11B0220A128A158312031352080A16A6
:101BF2008A11B0220A128A158312031353080A1695
:101C02008A11B0220A128A15D03083120313C90036
:101C12008730CA000A168A1144240A128A158312CE
:101C2200031354080A168A11B0220A128A15831263
:101C3200031355080A168A11B0220A128A15CE30E9
:101C420083120313C9008730CA000A168A1144247A
:101C52000A128A158312031356080A168A11B02231
:101C62000A128A158312031357080A168A11B02220
:101C72000A128A15D13083120313C9008730CA00B1
:101C82000A168A1144240A128A1524308312031375
:101C9200C9008630CA000A168A1144240A128A151B
:101CA200013083120313D90731085902031C5A2E3B
:101CB2005B2E7E2D2530C9008630CA000A168A1195
:101CC20044240A128A15273083120313C90086306E
:101CD200CA000A168A1144240A128A150330F60031
:101CE2008730F700C030F8000A168A11C2240A129F
:101CF2008A15572D080083120313CE0013304A06AB
:101D0200031D842E852E9B2E0330AE00AD01403084
:101D1200F6000A168A1145230A128A150530831223
:101D22000313B400CE01F201C5300A168A11B92597
:101D32000A128A153730831203134E06031DA22E90
:101D4200A32EBF2E04302D020318A82EA92EBF2EBB
:101D52002D08C53E84003130831380002D08C53E16
:101D6200C9002A300A168A11F6220A128A1501308F
:101D720083120313AD070530B400DB2E2F304E065D
:101D8200031DC42EC52EDB2E04302D020318CA2ECD
:101D9200CB2EDB2E2D08C53E84003030831380000D
:101DA2002D08C53EC9002A300A168A11F6220A12E7
:101DB2008A15B82E3408031DDF2EE02EE22EA13044
:101DC200FF2F04302D06031DE72EE82EFE2FC5300F
:101DD200F2004030F3000430F4000030F5000A1243
:101DE2008A11B5250A128A1572087304031DFA2E88
:101DF200FB2E262F0A168A11D3220A128A15F20105
:101E02000C300A168A11B9250A128A151130F60009
:101E12008730F7008030F8000A168A11C2240A12AD
:101E22008A15273083120313CD000D30CC002530E4
:101E3200CB00CB0B1A2FCC0B1A2FCD0B1A2F212F25
:101E4200831203131211A030FF2F013083120313E8
:101E5200AE022E08031D2E2F2F2F9F2F0A168A1136
:101E6200D3220A128A15F2010C300A168A11B925F8
:101E72000A128A15A730F6008630F7008030F80083
:101E82000A168A11C2240A128A15B530F600873062
:101E9200F700C030F8000A168A11C2240A128A1505
:101EA2003C3083120313AF00952FC930C9000A30AA
:101EB200F2000030F3002F08CB00CC014B08F400F5
:101EC2004C08F5000A128A1537210A128A1572087F
:101ED200303E0A168A11F6220A128A15CA30831275
:101EE2000313C9000A30F2000030F3002F08CB00C0
:101EF200CC014B08F4004C08F5000A128A15242084
:101F02000A128A157208303E0A168A11F6220A123D
:101F12008A15D430F6008730F700CC30F8000A1664
:101F22008A11C2240A128A15831203132F08031D71
:101F32009B2F9C2F562F0330AE00DB2F0A168A11DF
:101F4200D3220A128A15F2010C300A168A11B92517
:101F52000A128A15E630F6008630F7008030F80063
:101F62000A168A11C2240A128A155330F6008730E3
:101F7200F700C030F8000A168A11C2240A128A1524
:101F8200CD3083120313C9002E08303E0A168A117F
:101F9200F6220A128A15273083120313CD000D3060
:101FA200CC002530CB00CB0BD42FCC0BD42FCD0BB8
:101FB200D42FDB2F0A168A11D3220A128A15F201B4
:101FC2000F300A168A11B9250A128A158430F600D2
:101FD2008630F7008030F8000A168A11C2240A12ED
:101FE2008A15F201C5300A168A11B9250A128A1514
:0E1FF20083120313AD010530B4000030080067
:1024C2008316031306083F38860008008316031399
:1024D2009F17831203131F14080064008001840AEB
:1024E20004060319003404066F2A4F344E340034B4
:1024F200013401340134013401340A168A11C6222E
:102502000A168A1183160313111408000A168A1177
:10251200C6220A168A118316031311150800FA300F
:102522008316031392008C148312031312118C105E
:1025320008000A168A1187220A168A110A168A11B7
:102542007E220A168A110800F2000A168A11C62291
:102552000A168A1172088312031393000800F80006
:1025620078088312031399000C1EB82AB92AB52AD7
:102572000C120800831603138801091189100A122C
:102582008A15D4200A168A11080083160313141917
:10259200CB2ACC2AC62A11081F39031DD12AD22AD6
:1025A200C62A0800F20101300A168A11B9250A1654
:1025B2008A110430F7003D30F600F60BDE2AF70BE5
:1025C200DE2AE32A080000300A168A1197240A1626
:1025D2008A11F6007F30F6057608F30000300A16FD
:1025E2008A1176230A168A110800F800F201831272
:1025F200031349080A168A11B9250A168A11F2012B
:10260200F20A78080A168A11B9250A168A110800F0
:10261200F400F301741C0E2B0F2B112B7208F3071D
:102622000310F20D0310F40C7408031D192B1A2B5E
:102632000B2B730808007E088A007F0882000A16A6
:102642008A111C230A168A118000840A04087D0656
:1026520003190034FF0A0319FE0A202BE8348734D9
:10266200EB348734DC348734DF348734E234873424
:10267200E5348734AC348734993487343934873439
:10268200A334873479348734F80178087607F70061
:10269200770884007808643E0A168A116C240A16A8
:1026A2008A11831380000130F80704307802031C7A
:1026B2005B2B5C2B462B0800F8006D2B77088400FF
:1026C2000008F30078080A168A11F1240A168A1102
:1026D2000130F8070130F7077708840083130008F8
:1026E200031D742B752B5F2B0800F4000A168A1148
:1026F2007E220A168A11D0300A168A11A5220A16DB
:102702008A1174080A168A11A5220A168A117308F8
:102712000A168A11A5220A168A110A168A11872216
:102722000A168A110800F7007708F4000330031034
:10273200F40DFF3E031D982B831203131F08C739A4
:1027420074049F001F151F19A72BA82BA42B1E086A
:10275200F600831603131E08F5007608F3007508C9
:10276200F2000800F2000A168A11C6220A168A111D
:102772008316031391150A168A11C6220A168A11A4
:10278200831203131308F3007203031DC92BCA2B10
:10279200CE2B831603139116D12B8316031391129A
:1027A200111673080800F601F701721CD92BDA2BF7
:1027B200E02B7408F6070318F70A7508F7070130CB
:1027C2000310F40DF50DFF3E031DE12B0130031044
:1027D200F30CF20CFF3E031DE82B72087304031D79
:1027E200F32BF42BD62B7708F3007608F2000800BF
:1027F2004030F6000A168A1145230A168A11303033
:102802008312031340060319072C082C1D2C3130A8
:10281200400603190D2C0E2C1D2C3130C000313016
:10282200C1003130C2003130C3004030F7000A1617
:102832008A111E240A168A110800F80178087707FF
:1028420083120313C5004508840083130008F300B4
:102852007808643E0A168A11F1240A168A11413058
:1028620083120313C600ED30C500C50B362CC60B10
:10287200362C3B2C0130F80704307802031C422C22
:10288200432C1F2C08005B2C4A08FF0049088400D7
:102892000A128A11EE270A168A110A168A11B02222
:1028A2000A168A11013083120313C9070318CA0AD0
:1028B2000030CA07831203134A08FF004908840044
:1028C2000A128A11EE270A168A11003A031D6A2C8F
:1028D2006B2C452C0800F4000A168A117E220A1677
:1028E2008A11A0300A168A11A5220A168A117408C2
:1028F2000A168A11A5220A168A110A168A119A2222
:102902000A168A11A1300A168A11A5220A168A11FC
:1029120000300A168A11B3230A168A11F5000A1624
:102922008A1187220A168A1175080800F4000A160D
:102932008A117E220A168A11D0300A168A11A5221D
:102942000A168A1174080A168A11A5220A168A1111
:102952000A168A119A220A168A11D1300A168A1187
:10296200A5220A168A1100300A168A11B3230A1602
:102972008A11F5000A168A1187220A168A11750829
:102982000800F20178080A168A11B9250A168A1176
:10299200E02CF201F20A7708FF00760884000A129E
:1029A2008A11EE270A168A110A168A11B9250A1601
:1029B2008A110130F6070318F70A0030F707770883
:1029C20083120313FF00760884000A128A11EE278D
:1029D2000A168A11003A031DEF2CF02CCA2C0800AB
:1029E200F4000A168A117E220A168A11A0300A16EB
:1029F2008A11A5220A168A1174080A168A11A522BA
:102A02000A168A1173080A168A11A5220A168A1151
:102A12000A168A1187220A168A11B830F5000B307D
:102A2200F6000130F5020030031CF603F602750AC7
:102A3200031D1F2D760A031D1F2D202D122D0800A8
:102A42001630831203134506031D282D292D2B2D25
:102A52000130EA006A0803192F2D302D522D0A1673
:102A62008A11D3220A168A1183120313B101C401F7
:102A72008F30F6008730F7008030F8000A168A118E
:102A8200C2240A168A118430F6008730F700C0305B
:102A9200F8000A168A11C2240A168A118312031335
:102AA200EA01080083120313981718164D08D10083
:102AB2004E08D2004F08D3005008D400043003104F
:102AC200D10DD20DD30DD40DFF3E031D602D540840
:102AD200C8005308C7005208C6005108C50001309B
:102AE200CC003130CB002D30CA000030C9000A12B0
:102AF2008A1501220A168A11831203134508FF3E22
:102B020083160313990008008312031394154D08CA
:102B1200D1004E08D2004F08D3005008D400023032
:102B22000310D10DD20DD30DD40DFF3E031D912DF7
:102B32005408C8005308C7005208C6005108C5000F
:102B42000130CC003130CB002D30CA000030C9003A
:102B52000A128A1501220A168A11831203134508E2
:102B6200FF3E831603139300831203139416080087
:102B7200F5007218BD2DC12D831203130915C42D42
:102B82008312031309117508F03988008914A630DD
:102B9200F300F30BCA2D000083120313891075088A
:102BA2000F39F30003300310F30DFF3E031DD42D44
:102BB2000310730D88008914A630F300F30BDF2D88
:102BC20000008312031389101B30F4009E30F300BF
:102BD200F30BE92DF40BE92D000008007208F70051
:102BE200092E0130F4020030031CF503F5027308CC
:102BF200F30A840083130008F6007708F70A8400BA
:102C0200760880000008031D072E082E092E162EB6
:102C120074087504031D0E2E0F2EF22D162E770842
:102C22008400831380010130F7070130F402003081
:102C3200031CF503F502740A031D232E750A031DF6
:102C4200232E242E102E080083120313C7004708D8
:102C5200C500C6014508F2004608F3000A30F40038
:102C62000030F5000A168A11D4230A168A11730855
:102C720083120313C9007208C800CA014A08780700
:102C8200C5004508840048084A070A168A116C24C0
:102C92000A168A1183138000013083120313CA07B4
:102CA2000A304A02031C562E572E3F2E78080A3E3F
:102CB200840080010800831203138C1C612E622E93
:102CC2008E2E0130A3070318A40A0030A407103087
:102CD2002306273003192406031D702E712E732E2E
:102CE2000130B000203023064E3003192406031DA4
:102CF2007B2E7C2E8D2EA301A401B0013408031972
:102D0200832E842E862E0130B4022F0803198A2EB8
:102D12008B2E8D2E0130AF028C1071088A00700E3E
:102D22008300FE0E7E0E0900003083120313D000D2
:102D32000130CF008630CE00A030CD000A168A11B5
:102D420085250A168A110A168A11E4220A168A11A0
:102D52000A168A1167220A168A110A168A11612234
:102D62000A168A110A168A1190220A168A110A165E
:102D72008A11BB220A168A11003083120313D00073
:102D82000030CF002530CE008030CD000A168A11E7
:102D920053250A168A110B178B1708008312031387
:102DA200C901CA01450846040319D82ED92E0E2F8F
:102DB2000130CB00E52E01300310C50DC60DFF3EDC
:102DC200031DDD2E0130CB07C61FE82EE92EDC2EB7
:102DD20001300310C90DCA0DFF3E031DEA2E46083D
:102DE2004802031DF62E45084702031CF92EFA2E4F
:102DF200012F4508C7024608031CC803C80249142C
:102E020001300310C60CC50CFF3E031D022F01301A
:102E1200CB02031D0D2F0E2FE92E4A08C6004908CA
:102E2200C500080002300A168A1197240A168A1170
:102E320083120313A00001300A168A1197240A167E
:102E42008A1183120313A10000300A168A119724F3
:102E52000A168A1183120313A2002008F600043016
:102E62000310F60CFF3E031D312F76080339303E66
:102E7200B50020080F39303EB6002108F6000430B4
:102E82000310F60CFF3E031D412F76080739303E32
:102E9200B70021080F39303EB8002208F60004308E
:102EA2000310F60CFF3E031D512F76080739303E02
:102EB200B90022080F39303EBA00BB010800831264
:102EC2000313D9006B080319672F682F842F0A1682
:102ED2008A11D3220A168A11831203133108031DA1
:102EE200732F742F802FC630F6008730F7008030A2
:102EF200F8000A168A11C2240A168A11AE2F310866
:102F0200FF3EAB00EB0137305906031D892F8A2F94
:102F12008D2F0130AB029C2F2F305906031D922FAB
:102F2200932F9C2F0130AB070A302B06031D9A2FDB
:102F32009B2F9C2FAB014E30F8002B080A168A11EA
:102F420025260A168A114E3083120313CA002B0853
:102F52000A128A1530230A168A110800C030831219
:102F62000313C90035080A168A11F6220A168A11B5
:102F7200C13083120313C90036080A168A11F622D9
:102F82000A168A11C23083120313C9003A300A1694
:102F92008A11F6220A168A11C33083120313C9005A
:102FA20037080A168A11F6220A168A11C4308312C9
:102FB2000313C90038080A168A11F6220A168A1162
:102FC200C53083120313C9003A300A168A11F62259
:102FD2000A168A11C63083120313C90039080A1669
:102FE2008A11F6220A168A11C73083120313C90006
:0E2FF2003A080A168A11F6220A168A110800F9
:02400E00FB3F76
:00000001FF
